:100000000C942A000C9447000C9447000C94470071
:100010000C9447000C9447000C9447000C94470044
:100020000C9447000C9447000C9442010C94470038
:100030000C9447000C9447000C9447000C94470024
:100040000C9447000C9447000C9447000C94470014
:100050000C94470011241FBECFE5D8E0DEBFCDBF12
:1000600010E0A0E6B0E0E0E1F9E002C005900D92FA
:10007000AA3AB107D9F720E0AAEAB0E001C01D9280
:10008000A03BB207E1F70E9417020C9486040C947F
:100090000000DE9A82E08A95F1F700C0DE980895AC
:1000A0001F93CF93DF931F92CDB7DEB7662311F076
:1000B000DC9A01C0DC98DD989AB39F609ABB1BB3B1
:1000C000107F982F92959F70912B9BBB89830E94E4
:1000D000490089818F70812B8BBB0E9449001F6072
:1000E0001BBB0F90DF91CF911F910895DC98DD9A93
:1000F0008AB3807F8ABBDE9A82E08A95F1F700C0DE
:1001000089B3DE9892E09A95F1F700C0DE9A92E00A
:100110009A95F1F700C099B39F708295807FDE9821
:10012000892B08950E94760087FDFCCF8AE08A958E
:10013000F1F700C00C947600CF93C82F0E94920074
:1001400060E08C2FCF910C945000CF93C82F0E9469
:10015000920061E08C2FCF910C945000611102C08D
:10016000805801C080540C949C000E94920090E042
:10017000089581E00C949C0082E00C949C00CF9345
:10018000C82F0E949200CA3049F4803410F480E4F1
:1001900001C080E08058CF910C949C0061E08C2FCE
:1001A000CF910C945000CF93DF93EC018991882379
:1001B00019F00E94BF00FACFDF91CF910895CF933D
:1001C000DF93FC018491EF012196882321F00E94A6
:1001D000BF00FE01F7CFDF91CF910895CF93C82FD5
:1001E0009AB39F679ABB8FEF9CE70197F1F700C026
:1001F0000000D99AD89A0E9449008FE097E20197AF
:10020000F1F700C000000E9449009AEA9A95F1F7C0
:1002100000C00E9449008AEA8A95F1F700C0D89888
:100220000E9449009AEA9A95F1F700C088E20E947C
:100230009C0088E00E949C000E94B90086E00E9419
:100240009C008C2FCF910C949C0096B3982369F45A
:100250002FEF33EF91E0215030409040E1F700C0A4
:10026000000096B3982381E009F080E0089500979C
:1002700041F0EFECF7E03197F1F700C00000019793
:10028000F6CF08951F920F920FB60F9211242F935D
:100290003F934F935F936F937F938F939F93AF930E
:1002A000BF93EF93FF9382E00E942501882369F0BA
:1002B0008091AA0081111FC08091AF0091E0892731
:1002C0008093AF001092AE0011C081E00E94250122
:1002D000882379F08091AA0081110DC08091AE0031
:1002E00091E089278093AE001092AF009093AA000E
:1002F00002C01092AA00FF91EF91BF91AF919F9120
:100300008F917F916F915F914F913F912F910F90BE
:100310000FBE0F901F901895AA9AAB9A86E990E0AD
:100320000E943701AA98AB9808950F931F93CF931B
:10033000DF938C01C0E0D0E0C017D10774F4A99816
:10034000959A85E090E00E9437019598A99A85E0FA
:1003500090E00E9437012196EFCFDF91CF911F915E
:100360000F910895CF93DF939698C0E0D0E08091ED
:10037000600090916100C817D90770F4A998959A08
:1003800082E090E00E9437019598A99A82E090E07F
:100390000E9437012196EBCF969ADF91CF91089575
:1003A000CF93DF93CDB7DEB760970FB6F894DEBF7B
:1003B0000FBECDBF0E94B90086E690E00E94D30038
:1003C00061E080E00E94AE0082E790E00E94D300EE
:1003D0004AE050E0BE016F5F7F4F809162009091D4
:1003E00063000E9446040E94D30087EA90E00E94C6
:1003F000D30085E790E00E94D3004AE050E0BE01C0
:100400006F5F7F4F80916400909165000E94460469
:100410000E94D30080E991E00E94370160960FB6F8
:10042000F894DEBF0FBECDBFDF91CF910895CF937B
:10043000DF93CDB7DEB760970FB6F894DEBF0FBE7F
:10044000CDBF83B7886083BF83B7856083BF86E2F3
:100450008CBF89B7826089BF8FEF84BB81BB15BA1F
:1004600012BA87B3807E87BB88B38F6188BB8CE06C
:100470000E94EE000E94D001A89A959A969A7894CC
:1004800008EE13E0FF24F39480E590E00E9437012A
:1004900080E10E942501882301F18091AB00811148
:1004A0001CC0F092AB00809160009091610060915F
:1004B0006200709163000E94570380E090E00E9408
:1004C00097030E94FD030E946B037093AD0060933D
:1004D000AC0088EC90E00E9437018091AB0088234B
:1004E00009F45FC08091AF0081115BC08091AE00C4
:1004F000811157C08091620090916300892BD9F1DE
:100500000E94B90088E790E00E94D30061E080E09B
:100510000E94AE004AE050E0BE016F5F7F4F8091C5
:100520006200909163000E9446040E94D3000E94E2
:100530008C0180916400909165009C01209FC00116
:10054000219F900D309F900D11240E9437018091C2
:10055000AC009091AD000E9495018AEF90E00E945E
:10056000370180916200909163000197909363003E
:100570008093620016C061E08CE00E94AE0088E8C3
:1005800090E00E94D30012BAAA98A99880E10E9434
:100590002501882331F0A89AA99A1092AB000E94F5
:1005A000D0018091AB0081116FCF8091AF00882383
:1005B000C9F10E94B9008DE890E00E94D30061E08B
:1005C00080E00E94AE004AE050E0BE016F5F7F4FC6
:1005D00080916400909165000E9446040E94D300BF
:1005E00089E990E00E94D30088E00E9425018823D9
:1005F00049F080916400909165008C33910510F46E
:1006000001960CC084E00E942501882359F0809156
:10061000640090916500009729F001979093650020
:10062000809364008091AE00882391F10E94B9000C
:100630008BE990E00E94D30061E080E00E94AE0070
:100640004AE050E0BE016F5F7F4F80916200909161
:1006500063000E9446040E94D30088E00E942501A6
:10066000882331F080916200909163000A960CC05B
:1006700084E00E942501882359F0809162009091C6
:100680006300009729F00A979093630080936200BB
:100690008091AE008111F8CE8091AF008111F4CE2F
:1006A0000E94D00184E690E00E943701EDCEAA1BA3
:1006B000BB1B51E107C0AA1FBB1FA617B70710F04D
:1006C000A61BB70B881F991F5A95A9F7809590957F
:1006D000BC01CD01089570D088F09F5790F0B92FDC
:1006E0009927B751A0F0D1F0660F771F881F991F87
:1006F0001AF0BA95C9F712C0B13081F077D0B1E0E5
:10070000089574C0672F782F8827B85F39F0B93FF4
:10071000CCF3869577956795B395D9F73EF4909588
:100720008095709561957F4F8F4F9F4F0895E89406
:1007300009C097FB3EF490958095709561957F4F29
:100740008F4F9F4F9923A9F0F92F96E9BB279395D7
:10075000F695879577956795B795F111F8CFFAF4E7
:10076000BB0F11F460FF1BC06F5F7F4F8F4F9F4F18
:1007700016C0882311F096E911C0772321F09EE876
:10078000872F762F05C0662371F096E8862F70E0DC
:1007900060E02AF09A95660F771F881FDAF7880FB6
:1007A0009695879597F9089557FD9058440F551FD2
:1007B00059F05F3F71F04795880F97FB991F61F0E3
:1007C0009F3F79F087950895121613061406551F5A
:1007D000F2CF4695F1DF08C0161617061806991FC6
:1007E000F1CF86957105610508940895E894BB27BB
:1007F00066277727CB0197F90895DEDFE0F09E3773
:10080000D8F09639B8F49E3848F4672F782F8827A7
:10081000985FF9CF86957795679593959539D0F33D
:10082000B62FB1706B0F711D811D20F487957795E0
:100830006795939502C01CC0DACF882371F47723A3
:1008400021F09850872B762F07C0662311F4992743
:100850000DC09051862B70E060E02AF09A95660FEB
:10086000771F881FDAF7880F9695879597F908956F
:100870009F3F31F0915020F4879577956795B79514
:10088000880F911D9695879597F9089545325105E2
:1008900020F4423010F00C945104FB011082CB0183
:1008A0000895BB274A3031F4992322F4BDE2909594
:1008B00081959F4F0C945D04BB27FB015527AA2708
:1008C000880F991FAA1FA41710F0A41B83955051DD
:1008D000B9F7A05DAA3308F0A95DA193009779F755
:1008E000B111B1931192CB010C947604DC01FC019F
:1008F000672F71917723E1F7329704C07C916D9354
:1009000070836291AE17BF07C8F30895F894FFCFC4
:100910003A201400020050686F746C792076302EF3
:100920003200503D00543D0053455353494F4E2033
:100930005354415254454400444F4E45004275665D
:100940002E2074696D653A2000730050686F746FD3
:0A09500073206E756D2E3A20000032
:00000001FF
