
Photoly.elf:     file format elf32-avr

Sections:
Idx Name          Size      VMA       LMA       File off  Algn
  0 .text         00000910  00000000  00000000  00000094  2**1
                  CONTENTS, ALLOC, LOAD, READONLY, CODE
  1 .data         0000004a  00800060  00000910  000009a4  2**0
                  CONTENTS, ALLOC, LOAD, DATA
  2 .bss          00000006  008000aa  008000aa  000009ee  2**0
                  ALLOC
  3 .comment      00000011  00000000  00000000  000009ee  2**0
                  CONTENTS, READONLY
  4 .debug_aranges 00000080  00000000  00000000  00000a00  2**3
                  CONTENTS, READONLY, DEBUGGING
  5 .debug_info   000002f8  00000000  00000000  00000a80  2**0
                  CONTENTS, READONLY, DEBUGGING
  6 .debug_abbrev 00000050  00000000  00000000  00000d78  2**0
                  CONTENTS, READONLY, DEBUGGING
  7 .debug_line   00000181  00000000  00000000  00000dc8  2**0
                  CONTENTS, READONLY, DEBUGGING

Disassembly of section .text:

00000000 <__vectors>:
   0:	0c 94 2a 00 	jmp	0x54	; 0x54 <__ctors_end>
   4:	0c 94 47 00 	jmp	0x8e	; 0x8e <__bad_interrupt>
   8:	0c 94 47 00 	jmp	0x8e	; 0x8e <__bad_interrupt>
   c:	0c 94 47 00 	jmp	0x8e	; 0x8e <__bad_interrupt>
  10:	0c 94 47 00 	jmp	0x8e	; 0x8e <__bad_interrupt>
  14:	0c 94 47 00 	jmp	0x8e	; 0x8e <__bad_interrupt>
  18:	0c 94 47 00 	jmp	0x8e	; 0x8e <__bad_interrupt>
  1c:	0c 94 47 00 	jmp	0x8e	; 0x8e <__bad_interrupt>
  20:	0c 94 47 00 	jmp	0x8e	; 0x8e <__bad_interrupt>
  24:	0c 94 47 00 	jmp	0x8e	; 0x8e <__bad_interrupt>
  28:	0c 94 42 01 	jmp	0x284	; 0x284 <__vector_10>
  2c:	0c 94 47 00 	jmp	0x8e	; 0x8e <__bad_interrupt>
  30:	0c 94 47 00 	jmp	0x8e	; 0x8e <__bad_interrupt>
  34:	0c 94 47 00 	jmp	0x8e	; 0x8e <__bad_interrupt>
  38:	0c 94 47 00 	jmp	0x8e	; 0x8e <__bad_interrupt>
  3c:	0c 94 47 00 	jmp	0x8e	; 0x8e <__bad_interrupt>
  40:	0c 94 47 00 	jmp	0x8e	; 0x8e <__bad_interrupt>
  44:	0c 94 47 00 	jmp	0x8e	; 0x8e <__bad_interrupt>
  48:	0c 94 47 00 	jmp	0x8e	; 0x8e <__bad_interrupt>
  4c:	0c 94 47 00 	jmp	0x8e	; 0x8e <__bad_interrupt>
  50:	0c 94 47 00 	jmp	0x8e	; 0x8e <__bad_interrupt>

00000054 <__ctors_end>:
  54:	11 24       	eor	r1, r1
  56:	1f be       	out	0x3f, r1	; 63
  58:	cf e5       	ldi	r28, 0x5F	; 95
  5a:	d8 e0       	ldi	r29, 0x08	; 8
  5c:	de bf       	out	0x3e, r29	; 62
  5e:	cd bf       	out	0x3d, r28	; 61

00000060 <__do_copy_data>:
  60:	10 e0       	ldi	r17, 0x00	; 0
  62:	a0 e6       	ldi	r26, 0x60	; 96
  64:	b0 e0       	ldi	r27, 0x00	; 0
  66:	e0 e1       	ldi	r30, 0x10	; 16
  68:	f9 e0       	ldi	r31, 0x09	; 9
  6a:	02 c0       	rjmp	.+4      	; 0x70 <__do_copy_data+0x10>
  6c:	05 90       	lpm	r0, Z+
  6e:	0d 92       	st	X+, r0
  70:	aa 3a       	cpi	r26, 0xAA	; 170
  72:	b1 07       	cpc	r27, r17
  74:	d9 f7       	brne	.-10     	; 0x6c <__do_copy_data+0xc>

00000076 <__do_clear_bss>:
  76:	20 e0       	ldi	r18, 0x00	; 0
  78:	aa ea       	ldi	r26, 0xAA	; 170
  7a:	b0 e0       	ldi	r27, 0x00	; 0
  7c:	01 c0       	rjmp	.+2      	; 0x80 <.do_clear_bss_start>

0000007e <.do_clear_bss_loop>:
  7e:	1d 92       	st	X+, r1

00000080 <.do_clear_bss_start>:
  80:	a0 3b       	cpi	r26, 0xB0	; 176
  82:	b2 07       	cpc	r27, r18
  84:	e1 f7       	brne	.-8      	; 0x7e <.do_clear_bss_loop>
  86:	0e 94 17 02 	call	0x42e	; 0x42e <main>
  8a:	0c 94 86 04 	jmp	0x90c	; 0x90c <_exit>

0000008e <__bad_interrupt>:
  8e:	0c 94 00 00 	jmp	0	; 0x0 <__vectors>

00000092 <toggle_e>:
  92:	de 9a       	sbi	0x1b, 6	; 27
  94:	82 e0       	ldi	r24, 0x02	; 2
  96:	8a 95       	dec	r24
  98:	f1 f7       	brne	.-4      	; 0x96 <toggle_e+0x4>
  9a:	00 c0       	rjmp	.+0      	; 0x9c <toggle_e+0xa>
  9c:	de 98       	cbi	0x1b, 6	; 27
  9e:	08 95       	ret

000000a0 <lcd_write>:
  a0:	1f 93       	push	r17
  a2:	cf 93       	push	r28
  a4:	df 93       	push	r29
  a6:	1f 92       	push	r1
  a8:	cd b7       	in	r28, 0x3d	; 61
  aa:	de b7       	in	r29, 0x3e	; 62
  ac:	66 23       	and	r22, r22
  ae:	11 f0       	breq	.+4      	; 0xb4 <lcd_write+0x14>
  b0:	dc 9a       	sbi	0x1b, 4	; 27
  b2:	01 c0       	rjmp	.+2      	; 0xb6 <lcd_write+0x16>
  b4:	dc 98       	cbi	0x1b, 4	; 27
  b6:	dd 98       	cbi	0x1b, 5	; 27
  b8:	9a b3       	in	r25, 0x1a	; 26
  ba:	9f 60       	ori	r25, 0x0F	; 15
  bc:	9a bb       	out	0x1a, r25	; 26
  be:	1b b3       	in	r17, 0x1b	; 27
  c0:	10 7f       	andi	r17, 0xF0	; 240
  c2:	98 2f       	mov	r25, r24
  c4:	92 95       	swap	r25
  c6:	9f 70       	andi	r25, 0x0F	; 15
  c8:	91 2b       	or	r25, r17
  ca:	9b bb       	out	0x1b, r25	; 27
  cc:	89 83       	std	Y+1, r24	; 0x01
  ce:	0e 94 49 00 	call	0x92	; 0x92 <toggle_e>
  d2:	89 81       	ldd	r24, Y+1	; 0x01
  d4:	8f 70       	andi	r24, 0x0F	; 15
  d6:	81 2b       	or	r24, r17
  d8:	8b bb       	out	0x1b, r24	; 27
  da:	0e 94 49 00 	call	0x92	; 0x92 <toggle_e>
  de:	1f 60       	ori	r17, 0x0F	; 15
  e0:	1b bb       	out	0x1b, r17	; 27
  e2:	0f 90       	pop	r0
  e4:	df 91       	pop	r29
  e6:	cf 91       	pop	r28
  e8:	1f 91       	pop	r17
  ea:	08 95       	ret

000000ec <lcd_read.constprop.0>:
  ec:	dc 98       	cbi	0x1b, 4	; 27
  ee:	dd 9a       	sbi	0x1b, 5	; 27
  f0:	8a b3       	in	r24, 0x1a	; 26
  f2:	80 7f       	andi	r24, 0xF0	; 240
  f4:	8a bb       	out	0x1a, r24	; 26
  f6:	de 9a       	sbi	0x1b, 6	; 27
  f8:	82 e0       	ldi	r24, 0x02	; 2
  fa:	8a 95       	dec	r24
  fc:	f1 f7       	brne	.-4      	; 0xfa <lcd_read.constprop.0+0xe>
  fe:	00 c0       	rjmp	.+0      	; 0x100 <lcd_read.constprop.0+0x14>
 100:	89 b3       	in	r24, 0x19	; 25
 102:	de 98       	cbi	0x1b, 6	; 27
 104:	92 e0       	ldi	r25, 0x02	; 2
 106:	9a 95       	dec	r25
 108:	f1 f7       	brne	.-4      	; 0x106 <lcd_read.constprop.0+0x1a>
 10a:	00 c0       	rjmp	.+0      	; 0x10c <lcd_read.constprop.0+0x20>
 10c:	de 9a       	sbi	0x1b, 6	; 27
 10e:	92 e0       	ldi	r25, 0x02	; 2
 110:	9a 95       	dec	r25
 112:	f1 f7       	brne	.-4      	; 0x110 <lcd_read.constprop.0+0x24>
 114:	00 c0       	rjmp	.+0      	; 0x116 <lcd_read.constprop.0+0x2a>
 116:	99 b3       	in	r25, 0x19	; 25
 118:	9f 70       	andi	r25, 0x0F	; 15
 11a:	82 95       	swap	r24
 11c:	80 7f       	andi	r24, 0xF0	; 240
 11e:	de 98       	cbi	0x1b, 6	; 27
 120:	89 2b       	or	r24, r25
 122:	08 95       	ret

00000124 <lcd_waitbusy>:
 124:	0e 94 76 00 	call	0xec	; 0xec <lcd_read.constprop.0>
 128:	87 fd       	sbrc	r24, 7
 12a:	fc cf       	rjmp	.-8      	; 0x124 <lcd_waitbusy>
 12c:	8a e0       	ldi	r24, 0x0A	; 10
 12e:	8a 95       	dec	r24
 130:	f1 f7       	brne	.-4      	; 0x12e <lcd_waitbusy+0xa>
 132:	00 c0       	rjmp	.+0      	; 0x134 <lcd_waitbusy+0x10>
 134:	0c 94 76 00 	jmp	0xec	; 0xec <lcd_read.constprop.0>

00000138 <lcd_command>:
 138:	cf 93       	push	r28
 13a:	c8 2f       	mov	r28, r24
 13c:	0e 94 92 00 	call	0x124	; 0x124 <lcd_waitbusy>
 140:	60 e0       	ldi	r22, 0x00	; 0
 142:	8c 2f       	mov	r24, r28
 144:	cf 91       	pop	r28
 146:	0c 94 50 00 	jmp	0xa0	; 0xa0 <lcd_write>

0000014a <lcd_data>:
 14a:	cf 93       	push	r28
 14c:	c8 2f       	mov	r28, r24
 14e:	0e 94 92 00 	call	0x124	; 0x124 <lcd_waitbusy>
 152:	61 e0       	ldi	r22, 0x01	; 1
 154:	8c 2f       	mov	r24, r28
 156:	cf 91       	pop	r28
 158:	0c 94 50 00 	jmp	0xa0	; 0xa0 <lcd_write>

0000015c <lcd_gotoxy>:
 15c:	61 11       	cpse	r22, r1
 15e:	02 c0       	rjmp	.+4      	; 0x164 <lcd_gotoxy+0x8>
 160:	80 58       	subi	r24, 0x80	; 128
 162:	01 c0       	rjmp	.+2      	; 0x166 <lcd_gotoxy+0xa>
 164:	80 54       	subi	r24, 0x40	; 64
 166:	0c 94 9c 00 	jmp	0x138	; 0x138 <lcd_command>

0000016a <lcd_getxy>:
 16a:	0e 94 92 00 	call	0x124	; 0x124 <lcd_waitbusy>
 16e:	90 e0       	ldi	r25, 0x00	; 0
 170:	08 95       	ret

00000172 <lcd_clrscr>:
 172:	81 e0       	ldi	r24, 0x01	; 1
 174:	0c 94 9c 00 	jmp	0x138	; 0x138 <lcd_command>

00000178 <lcd_home>:
 178:	82 e0       	ldi	r24, 0x02	; 2
 17a:	0c 94 9c 00 	jmp	0x138	; 0x138 <lcd_command>

0000017e <lcd_putc>:
 17e:	cf 93       	push	r28
 180:	c8 2f       	mov	r28, r24
 182:	0e 94 92 00 	call	0x124	; 0x124 <lcd_waitbusy>
 186:	ca 30       	cpi	r28, 0x0A	; 10
 188:	49 f4       	brne	.+18     	; 0x19c <lcd_putc+0x1e>
 18a:	80 34       	cpi	r24, 0x40	; 64
 18c:	10 f4       	brcc	.+4      	; 0x192 <lcd_putc+0x14>
 18e:	80 e4       	ldi	r24, 0x40	; 64
 190:	01 c0       	rjmp	.+2      	; 0x194 <lcd_putc+0x16>
 192:	80 e0       	ldi	r24, 0x00	; 0
 194:	80 58       	subi	r24, 0x80	; 128
 196:	cf 91       	pop	r28
 198:	0c 94 9c 00 	jmp	0x138	; 0x138 <lcd_command>
 19c:	61 e0       	ldi	r22, 0x01	; 1
 19e:	8c 2f       	mov	r24, r28
 1a0:	cf 91       	pop	r28
 1a2:	0c 94 50 00 	jmp	0xa0	; 0xa0 <lcd_write>

000001a6 <lcd_puts>:
 1a6:	cf 93       	push	r28
 1a8:	df 93       	push	r29
 1aa:	ec 01       	movw	r28, r24
 1ac:	89 91       	ld	r24, Y+
 1ae:	88 23       	and	r24, r24
 1b0:	19 f0       	breq	.+6      	; 0x1b8 <lcd_puts+0x12>
 1b2:	0e 94 bf 00 	call	0x17e	; 0x17e <lcd_putc>
 1b6:	fa cf       	rjmp	.-12     	; 0x1ac <lcd_puts+0x6>
 1b8:	df 91       	pop	r29
 1ba:	cf 91       	pop	r28
 1bc:	08 95       	ret

000001be <lcd_puts_p>:
 1be:	cf 93       	push	r28
 1c0:	df 93       	push	r29
 1c2:	fc 01       	movw	r30, r24
 1c4:	84 91       	lpm	r24, Z
 1c6:	ef 01       	movw	r28, r30
 1c8:	21 96       	adiw	r28, 0x01	; 1
 1ca:	88 23       	and	r24, r24
 1cc:	21 f0       	breq	.+8      	; 0x1d6 <lcd_puts_p+0x18>
 1ce:	0e 94 bf 00 	call	0x17e	; 0x17e <lcd_putc>
 1d2:	fe 01       	movw	r30, r28
 1d4:	f7 cf       	rjmp	.-18     	; 0x1c4 <lcd_puts_p+0x6>
 1d6:	df 91       	pop	r29
 1d8:	cf 91       	pop	r28
 1da:	08 95       	ret

000001dc <lcd_init>:
 1dc:	cf 93       	push	r28
 1de:	c8 2f       	mov	r28, r24
 1e0:	9a b3       	in	r25, 0x1a	; 26
 1e2:	9f 67       	ori	r25, 0x7F	; 127
 1e4:	9a bb       	out	0x1a, r25	; 26
 1e6:	8f ef       	ldi	r24, 0xFF	; 255
 1e8:	9c e7       	ldi	r25, 0x7C	; 124
 1ea:	01 97       	sbiw	r24, 0x01	; 1
 1ec:	f1 f7       	brne	.-4      	; 0x1ea <lcd_init+0xe>
 1ee:	00 c0       	rjmp	.+0      	; 0x1f0 <lcd_init+0x14>
 1f0:	00 00       	nop
 1f2:	d9 9a       	sbi	0x1b, 1	; 27
 1f4:	d8 9a       	sbi	0x1b, 0	; 27
 1f6:	0e 94 49 00 	call	0x92	; 0x92 <toggle_e>
 1fa:	8f e0       	ldi	r24, 0x0F	; 15
 1fc:	97 e2       	ldi	r25, 0x27	; 39
 1fe:	01 97       	sbiw	r24, 0x01	; 1
 200:	f1 f7       	brne	.-4      	; 0x1fe <lcd_init+0x22>
 202:	00 c0       	rjmp	.+0      	; 0x204 <lcd_init+0x28>
 204:	00 00       	nop
 206:	0e 94 49 00 	call	0x92	; 0x92 <toggle_e>
 20a:	9a ea       	ldi	r25, 0xAA	; 170
 20c:	9a 95       	dec	r25
 20e:	f1 f7       	brne	.-4      	; 0x20c <lcd_init+0x30>
 210:	00 c0       	rjmp	.+0      	; 0x212 <lcd_init+0x36>
 212:	0e 94 49 00 	call	0x92	; 0x92 <toggle_e>
 216:	8a ea       	ldi	r24, 0xAA	; 170
 218:	8a 95       	dec	r24
 21a:	f1 f7       	brne	.-4      	; 0x218 <lcd_init+0x3c>
 21c:	00 c0       	rjmp	.+0      	; 0x21e <lcd_init+0x42>
 21e:	d8 98       	cbi	0x1b, 0	; 27
 220:	0e 94 49 00 	call	0x92	; 0x92 <toggle_e>
 224:	9a ea       	ldi	r25, 0xAA	; 170
 226:	9a 95       	dec	r25
 228:	f1 f7       	brne	.-4      	; 0x226 <lcd_init+0x4a>
 22a:	00 c0       	rjmp	.+0      	; 0x22c <lcd_init+0x50>
 22c:	88 e2       	ldi	r24, 0x28	; 40
 22e:	0e 94 9c 00 	call	0x138	; 0x138 <lcd_command>
 232:	88 e0       	ldi	r24, 0x08	; 8
 234:	0e 94 9c 00 	call	0x138	; 0x138 <lcd_command>
 238:	0e 94 b9 00 	call	0x172	; 0x172 <lcd_clrscr>
 23c:	86 e0       	ldi	r24, 0x06	; 6
 23e:	0e 94 9c 00 	call	0x138	; 0x138 <lcd_command>
 242:	8c 2f       	mov	r24, r28
 244:	cf 91       	pop	r28
 246:	0c 94 9c 00 	jmp	0x138	; 0x138 <lcd_command>

0000024a <key_pressed>:
 24a:	96 b3       	in	r25, 0x16	; 22
 24c:	98 23       	and	r25, r24
 24e:	69 f4       	brne	.+26     	; 0x26a <key_pressed+0x20>
 250:	2f ef       	ldi	r18, 0xFF	; 255
 252:	33 ef       	ldi	r19, 0xF3	; 243
 254:	91 e0       	ldi	r25, 0x01	; 1
 256:	21 50       	subi	r18, 0x01	; 1
 258:	30 40       	sbci	r19, 0x00	; 0
 25a:	90 40       	sbci	r25, 0x00	; 0
 25c:	e1 f7       	brne	.-8      	; 0x256 <key_pressed+0xc>
 25e:	00 c0       	rjmp	.+0      	; 0x260 <key_pressed+0x16>
 260:	00 00       	nop
 262:	96 b3       	in	r25, 0x16	; 22
 264:	98 23       	and	r25, r24
 266:	81 e0       	ldi	r24, 0x01	; 1
 268:	09 f0       	breq	.+2      	; 0x26c <key_pressed+0x22>
 26a:	80 e0       	ldi	r24, 0x00	; 0
 26c:	08 95       	ret

0000026e <delay>:
 26e:	00 97       	sbiw	r24, 0x00	; 0
 270:	41 f0       	breq	.+16     	; 0x282 <delay+0x14>
 272:	ef ec       	ldi	r30, 0xCF	; 207
 274:	f7 e0       	ldi	r31, 0x07	; 7
 276:	31 97       	sbiw	r30, 0x01	; 1
 278:	f1 f7       	brne	.-4      	; 0x276 <delay+0x8>
 27a:	00 c0       	rjmp	.+0      	; 0x27c <delay+0xe>
 27c:	00 00       	nop
 27e:	01 97       	sbiw	r24, 0x01	; 1
 280:	f6 cf       	rjmp	.-20     	; 0x26e <delay>
 282:	08 95       	ret

00000284 <__vector_10>:
 284:	1f 92       	push	r1
 286:	0f 92       	push	r0
 288:	0f b6       	in	r0, 0x3f	; 63
 28a:	0f 92       	push	r0
 28c:	11 24       	eor	r1, r1
 28e:	2f 93       	push	r18
 290:	3f 93       	push	r19
 292:	4f 93       	push	r20
 294:	5f 93       	push	r21
 296:	6f 93       	push	r22
 298:	7f 93       	push	r23
 29a:	8f 93       	push	r24
 29c:	9f 93       	push	r25
 29e:	af 93       	push	r26
 2a0:	bf 93       	push	r27
 2a2:	ef 93       	push	r30
 2a4:	ff 93       	push	r31
 2a6:	82 e0       	ldi	r24, 0x02	; 2
 2a8:	0e 94 25 01 	call	0x24a	; 0x24a <key_pressed>
 2ac:	88 23       	and	r24, r24
 2ae:	69 f0       	breq	.+26     	; 0x2ca <__vector_10+0x46>
 2b0:	80 91 aa 00 	lds	r24, 0x00AA
 2b4:	81 11       	cpse	r24, r1
 2b6:	1f c0       	rjmp	.+62     	; 0x2f6 <__vector_10+0x72>
 2b8:	80 91 af 00 	lds	r24, 0x00AF
 2bc:	91 e0       	ldi	r25, 0x01	; 1
 2be:	89 27       	eor	r24, r25
 2c0:	80 93 af 00 	sts	0x00AF, r24
 2c4:	10 92 ae 00 	sts	0x00AE, r1
 2c8:	11 c0       	rjmp	.+34     	; 0x2ec <__vector_10+0x68>
 2ca:	81 e0       	ldi	r24, 0x01	; 1
 2cc:	0e 94 25 01 	call	0x24a	; 0x24a <key_pressed>
 2d0:	88 23       	and	r24, r24
 2d2:	79 f0       	breq	.+30     	; 0x2f2 <__vector_10+0x6e>
 2d4:	80 91 aa 00 	lds	r24, 0x00AA
 2d8:	81 11       	cpse	r24, r1
 2da:	0d c0       	rjmp	.+26     	; 0x2f6 <__vector_10+0x72>
 2dc:	80 91 ae 00 	lds	r24, 0x00AE
 2e0:	91 e0       	ldi	r25, 0x01	; 1
 2e2:	89 27       	eor	r24, r25
 2e4:	80 93 ae 00 	sts	0x00AE, r24
 2e8:	10 92 af 00 	sts	0x00AF, r1
 2ec:	90 93 aa 00 	sts	0x00AA, r25
 2f0:	02 c0       	rjmp	.+4      	; 0x2f6 <__vector_10+0x72>
 2f2:	10 92 aa 00 	sts	0x00AA, r1
 2f6:	ff 91       	pop	r31
 2f8:	ef 91       	pop	r30
 2fa:	bf 91       	pop	r27
 2fc:	af 91       	pop	r26
 2fe:	9f 91       	pop	r25
 300:	8f 91       	pop	r24
 302:	7f 91       	pop	r23
 304:	6f 91       	pop	r22
 306:	5f 91       	pop	r21
 308:	4f 91       	pop	r20
 30a:	3f 91       	pop	r19
 30c:	2f 91       	pop	r18
 30e:	0f 90       	pop	r0
 310:	0f be       	out	0x3f, r0	; 63
 312:	0f 90       	pop	r0
 314:	1f 90       	pop	r1
 316:	18 95       	reti

00000318 <shutter>:
 318:	aa 9a       	sbi	0x15, 2	; 21
 31a:	ab 9a       	sbi	0x15, 3	; 21
 31c:	86 e9       	ldi	r24, 0x96	; 150
 31e:	90 e0       	ldi	r25, 0x00	; 0
 320:	0e 94 37 01 	call	0x26e	; 0x26e <delay>
 324:	aa 98       	cbi	0x15, 2	; 21
 326:	ab 98       	cbi	0x15, 3	; 21
 328:	08 95       	ret

0000032a <engine>:
 32a:	0f 93       	push	r16
 32c:	1f 93       	push	r17
 32e:	cf 93       	push	r28
 330:	df 93       	push	r29
 332:	8c 01       	movw	r16, r24
 334:	c0 e0       	ldi	r28, 0x00	; 0
 336:	d0 e0       	ldi	r29, 0x00	; 0
 338:	c0 17       	cp	r28, r16
 33a:	d1 07       	cpc	r29, r17
 33c:	74 f4       	brge	.+28     	; 0x35a <engine+0x30>
 33e:	a9 98       	cbi	0x15, 1	; 21
 340:	95 9a       	sbi	0x12, 5	; 18
 342:	85 e0       	ldi	r24, 0x05	; 5
 344:	90 e0       	ldi	r25, 0x00	; 0
 346:	0e 94 37 01 	call	0x26e	; 0x26e <delay>
 34a:	95 98       	cbi	0x12, 5	; 18
 34c:	a9 9a       	sbi	0x15, 1	; 21
 34e:	85 e0       	ldi	r24, 0x05	; 5
 350:	90 e0       	ldi	r25, 0x00	; 0
 352:	0e 94 37 01 	call	0x26e	; 0x26e <delay>
 356:	21 96       	adiw	r28, 0x01	; 1
 358:	ef cf       	rjmp	.-34     	; 0x338 <engine+0xe>
 35a:	df 91       	pop	r29
 35c:	cf 91       	pop	r28
 35e:	1f 91       	pop	r17
 360:	0f 91       	pop	r16
 362:	08 95       	ret

00000364 <engine_down>:
 364:	cf 93       	push	r28
 366:	df 93       	push	r29
 368:	96 98       	cbi	0x12, 6	; 18
 36a:	c0 e0       	ldi	r28, 0x00	; 0
 36c:	d0 e0       	ldi	r29, 0x00	; 0
 36e:	80 91 60 00 	lds	r24, 0x0060
 372:	90 91 61 00 	lds	r25, 0x0061
 376:	c8 17       	cp	r28, r24
 378:	d9 07       	cpc	r29, r25
 37a:	70 f4       	brcc	.+28     	; 0x398 <engine_down+0x34>
 37c:	a9 98       	cbi	0x15, 1	; 21
 37e:	95 9a       	sbi	0x12, 5	; 18
 380:	82 e0       	ldi	r24, 0x02	; 2
 382:	90 e0       	ldi	r25, 0x00	; 0
 384:	0e 94 37 01 	call	0x26e	; 0x26e <delay>
 388:	95 98       	cbi	0x12, 5	; 18
 38a:	a9 9a       	sbi	0x15, 1	; 21
 38c:	82 e0       	ldi	r24, 0x02	; 2
 38e:	90 e0       	ldi	r25, 0x00	; 0
 390:	0e 94 37 01 	call	0x26e	; 0x26e <delay>
 394:	21 96       	adiw	r28, 0x01	; 1
 396:	eb cf       	rjmp	.-42     	; 0x36e <engine_down+0xa>
 398:	96 9a       	sbi	0x12, 6	; 18
 39a:	df 91       	pop	r29
 39c:	cf 91       	pop	r28
 39e:	08 95       	ret

000003a0 <home_screen>:
 3a0:	cf 93       	push	r28
 3a2:	df 93       	push	r29
 3a4:	cd b7       	in	r28, 0x3d	; 61
 3a6:	de b7       	in	r29, 0x3e	; 62
 3a8:	60 97       	sbiw	r28, 0x10	; 16
 3aa:	0f b6       	in	r0, 0x3f	; 63
 3ac:	f8 94       	cli
 3ae:	de bf       	out	0x3e, r29	; 62
 3b0:	0f be       	out	0x3f, r0	; 63
 3b2:	cd bf       	out	0x3d, r28	; 61
 3b4:	0e 94 b9 00 	call	0x172	; 0x172 <lcd_clrscr>
 3b8:	86 e6       	ldi	r24, 0x66	; 102
 3ba:	90 e0       	ldi	r25, 0x00	; 0
 3bc:	0e 94 d3 00 	call	0x1a6	; 0x1a6 <lcd_puts>
 3c0:	61 e0       	ldi	r22, 0x01	; 1
 3c2:	80 e0       	ldi	r24, 0x00	; 0
 3c4:	0e 94 ae 00 	call	0x15c	; 0x15c <lcd_gotoxy>
 3c8:	82 e7       	ldi	r24, 0x72	; 114
 3ca:	90 e0       	ldi	r25, 0x00	; 0
 3cc:	0e 94 d3 00 	call	0x1a6	; 0x1a6 <lcd_puts>
 3d0:	4a e0       	ldi	r20, 0x0A	; 10
 3d2:	50 e0       	ldi	r21, 0x00	; 0
 3d4:	be 01       	movw	r22, r28
 3d6:	6f 5f       	subi	r22, 0xFF	; 255
 3d8:	7f 4f       	sbci	r23, 0xFF	; 255
 3da:	80 91 62 00 	lds	r24, 0x0062
 3de:	90 91 63 00 	lds	r25, 0x0063
 3e2:	0e 94 46 04 	call	0x88c	; 0x88c <itoa>
 3e6:	0e 94 d3 00 	call	0x1a6	; 0x1a6 <lcd_puts>
 3ea:	87 ea       	ldi	r24, 0xA7	; 167
 3ec:	90 e0       	ldi	r25, 0x00	; 0
 3ee:	0e 94 d3 00 	call	0x1a6	; 0x1a6 <lcd_puts>
 3f2:	85 e7       	ldi	r24, 0x75	; 117
 3f4:	90 e0       	ldi	r25, 0x00	; 0
 3f6:	0e 94 d3 00 	call	0x1a6	; 0x1a6 <lcd_puts>
 3fa:	4a e0       	ldi	r20, 0x0A	; 10
 3fc:	50 e0       	ldi	r21, 0x00	; 0
 3fe:	be 01       	movw	r22, r28
 400:	6f 5f       	subi	r22, 0xFF	; 255
 402:	7f 4f       	sbci	r23, 0xFF	; 255
 404:	80 91 64 00 	lds	r24, 0x0064
 408:	90 91 65 00 	lds	r25, 0x0065
 40c:	0e 94 46 04 	call	0x88c	; 0x88c <itoa>
 410:	0e 94 d3 00 	call	0x1a6	; 0x1a6 <lcd_puts>
 414:	80 e9       	ldi	r24, 0x90	; 144
 416:	91 e0       	ldi	r25, 0x01	; 1
 418:	0e 94 37 01 	call	0x26e	; 0x26e <delay>
 41c:	60 96       	adiw	r28, 0x10	; 16
 41e:	0f b6       	in	r0, 0x3f	; 63
 420:	f8 94       	cli
 422:	de bf       	out	0x3e, r29	; 62
 424:	0f be       	out	0x3f, r0	; 63
 426:	cd bf       	out	0x3d, r28	; 61
 428:	df 91       	pop	r29
 42a:	cf 91       	pop	r28
 42c:	08 95       	ret

0000042e <main>:
 42e:	cf 93       	push	r28
 430:	df 93       	push	r29
 432:	cd b7       	in	r28, 0x3d	; 61
 434:	de b7       	in	r29, 0x3e	; 62
 436:	60 97       	sbiw	r28, 0x10	; 16
 438:	0f b6       	in	r0, 0x3f	; 63
 43a:	f8 94       	cli
 43c:	de bf       	out	0x3e, r29	; 62
 43e:	0f be       	out	0x3f, r0	; 63
 440:	cd bf       	out	0x3d, r28	; 61
 442:	83 b7       	in	r24, 0x33	; 51
 444:	88 60       	ori	r24, 0x08	; 8
 446:	83 bf       	out	0x33, r24	; 51
 448:	83 b7       	in	r24, 0x33	; 51
 44a:	85 60       	ori	r24, 0x05	; 5
 44c:	83 bf       	out	0x33, r24	; 51
 44e:	86 e2       	ldi	r24, 0x26	; 38
 450:	8c bf       	out	0x3c, r24	; 60
 452:	89 b7       	in	r24, 0x39	; 57
 454:	82 60       	ori	r24, 0x02	; 2
 456:	89 bf       	out	0x39, r24	; 57
 458:	8f ef       	ldi	r24, 0xFF	; 255
 45a:	84 bb       	out	0x14, r24	; 20
 45c:	81 bb       	out	0x11, r24	; 17
 45e:	15 ba       	out	0x15, r1	; 21
 460:	12 ba       	out	0x12, r1	; 18
 462:	87 b3       	in	r24, 0x17	; 23
 464:	80 7e       	andi	r24, 0xE0	; 224
 466:	87 bb       	out	0x17, r24	; 23
 468:	88 b3       	in	r24, 0x18	; 24
 46a:	8f 61       	ori	r24, 0x1F	; 31
 46c:	88 bb       	out	0x18, r24	; 24
 46e:	8c e0       	ldi	r24, 0x0C	; 12
 470:	0e 94 ee 00 	call	0x1dc	; 0x1dc <lcd_init>
 474:	0e 94 d0 01 	call	0x3a0	; 0x3a0 <home_screen>
 478:	a8 9a       	sbi	0x15, 0	; 21
 47a:	95 9a       	sbi	0x12, 5	; 18
 47c:	96 9a       	sbi	0x12, 6	; 18
 47e:	78 94       	sei
 480:	08 ee       	ldi	r16, 0xE8	; 232
 482:	13 e0       	ldi	r17, 0x03	; 3
 484:	ff 24       	eor	r15, r15
 486:	f3 94       	inc	r15
 488:	80 e5       	ldi	r24, 0x50	; 80
 48a:	90 e0       	ldi	r25, 0x00	; 0
 48c:	0e 94 37 01 	call	0x26e	; 0x26e <delay>
 490:	80 e1       	ldi	r24, 0x10	; 16
 492:	0e 94 25 01 	call	0x24a	; 0x24a <key_pressed>
 496:	88 23       	and	r24, r24
 498:	01 f1       	breq	.+64     	; 0x4da <main+0xac>
 49a:	80 91 ab 00 	lds	r24, 0x00AB
 49e:	81 11       	cpse	r24, r1
 4a0:	1c c0       	rjmp	.+56     	; 0x4da <main+0xac>
 4a2:	f0 92 ab 00 	sts	0x00AB, r15
 4a6:	80 91 60 00 	lds	r24, 0x0060
 4aa:	90 91 61 00 	lds	r25, 0x0061
 4ae:	60 91 62 00 	lds	r22, 0x0062
 4b2:	70 91 63 00 	lds	r23, 0x0063
 4b6:	0e 94 57 03 	call	0x6ae	; 0x6ae <__udivmodhi4>
 4ba:	80 e0       	ldi	r24, 0x00	; 0
 4bc:	90 e0       	ldi	r25, 0x00	; 0
 4be:	0e 94 97 03 	call	0x72e	; 0x72e <__floatunsisf>
 4c2:	0e 94 fd 03 	call	0x7fa	; 0x7fa <round>
 4c6:	0e 94 6b 03 	call	0x6d6	; 0x6d6 <__fixunssfsi>
 4ca:	70 93 ad 00 	sts	0x00AD, r23
 4ce:	60 93 ac 00 	sts	0x00AC, r22
 4d2:	88 ec       	ldi	r24, 0xC8	; 200
 4d4:	90 e0       	ldi	r25, 0x00	; 0
 4d6:	0e 94 37 01 	call	0x26e	; 0x26e <delay>
 4da:	80 91 ab 00 	lds	r24, 0x00AB
 4de:	88 23       	and	r24, r24
 4e0:	09 f4       	brne	.+2      	; 0x4e4 <main+0xb6>
 4e2:	5f c0       	rjmp	.+190    	; 0x5a2 <main+0x174>
 4e4:	80 91 af 00 	lds	r24, 0x00AF
 4e8:	81 11       	cpse	r24, r1
 4ea:	5b c0       	rjmp	.+182    	; 0x5a2 <main+0x174>
 4ec:	80 91 ae 00 	lds	r24, 0x00AE
 4f0:	81 11       	cpse	r24, r1
 4f2:	57 c0       	rjmp	.+174    	; 0x5a2 <main+0x174>
 4f4:	80 91 62 00 	lds	r24, 0x0062
 4f8:	90 91 63 00 	lds	r25, 0x0063
 4fc:	89 2b       	or	r24, r25
 4fe:	d9 f1       	breq	.+118    	; 0x576 <main+0x148>
 500:	0e 94 b9 00 	call	0x172	; 0x172 <lcd_clrscr>
 504:	88 e7       	ldi	r24, 0x78	; 120
 506:	90 e0       	ldi	r25, 0x00	; 0
 508:	0e 94 d3 00 	call	0x1a6	; 0x1a6 <lcd_puts>
 50c:	61 e0       	ldi	r22, 0x01	; 1
 50e:	80 e0       	ldi	r24, 0x00	; 0
 510:	0e 94 ae 00 	call	0x15c	; 0x15c <lcd_gotoxy>
 514:	4a e0       	ldi	r20, 0x0A	; 10
 516:	50 e0       	ldi	r21, 0x00	; 0
 518:	be 01       	movw	r22, r28
 51a:	6f 5f       	subi	r22, 0xFF	; 255
 51c:	7f 4f       	sbci	r23, 0xFF	; 255
 51e:	80 91 62 00 	lds	r24, 0x0062
 522:	90 91 63 00 	lds	r25, 0x0063
 526:	0e 94 46 04 	call	0x88c	; 0x88c <itoa>
 52a:	0e 94 d3 00 	call	0x1a6	; 0x1a6 <lcd_puts>
 52e:	0e 94 8c 01 	call	0x318	; 0x318 <shutter>
 532:	80 91 64 00 	lds	r24, 0x0064
 536:	90 91 65 00 	lds	r25, 0x0065
 53a:	9c 01       	movw	r18, r24
 53c:	20 9f       	mul	r18, r16
 53e:	c0 01       	movw	r24, r0
 540:	21 9f       	mul	r18, r17
 542:	90 0d       	add	r25, r0
 544:	30 9f       	mul	r19, r16
 546:	90 0d       	add	r25, r0
 548:	11 24       	eor	r1, r1
 54a:	0e 94 37 01 	call	0x26e	; 0x26e <delay>
 54e:	80 91 ac 00 	lds	r24, 0x00AC
 552:	90 91 ad 00 	lds	r25, 0x00AD
 556:	0e 94 95 01 	call	0x32a	; 0x32a <engine>
 55a:	8a ef       	ldi	r24, 0xFA	; 250
 55c:	90 e0       	ldi	r25, 0x00	; 0
 55e:	0e 94 37 01 	call	0x26e	; 0x26e <delay>
 562:	80 91 62 00 	lds	r24, 0x0062
 566:	90 91 63 00 	lds	r25, 0x0063
 56a:	01 97       	sbiw	r24, 0x01	; 1
 56c:	90 93 63 00 	sts	0x0063, r25
 570:	80 93 62 00 	sts	0x0062, r24
 574:	16 c0       	rjmp	.+44     	; 0x5a2 <main+0x174>
 576:	61 e0       	ldi	r22, 0x01	; 1
 578:	8c e0       	ldi	r24, 0x0C	; 12
 57a:	0e 94 ae 00 	call	0x15c	; 0x15c <lcd_gotoxy>
 57e:	88 e8       	ldi	r24, 0x88	; 136
 580:	90 e0       	ldi	r25, 0x00	; 0
 582:	0e 94 d3 00 	call	0x1a6	; 0x1a6 <lcd_puts>
 586:	12 ba       	out	0x12, r1	; 18
 588:	aa 98       	cbi	0x15, 2	; 21
 58a:	a9 98       	cbi	0x15, 1	; 21
 58c:	80 e1       	ldi	r24, 0x10	; 16
 58e:	0e 94 25 01 	call	0x24a	; 0x24a <key_pressed>
 592:	88 23       	and	r24, r24
 594:	31 f0       	breq	.+12     	; 0x5a2 <main+0x174>
 596:	a8 9a       	sbi	0x15, 0	; 21
 598:	a9 9a       	sbi	0x15, 1	; 21
 59a:	10 92 ab 00 	sts	0x00AB, r1
 59e:	0e 94 d0 01 	call	0x3a0	; 0x3a0 <home_screen>
 5a2:	80 91 ab 00 	lds	r24, 0x00AB
 5a6:	81 11       	cpse	r24, r1
 5a8:	6f cf       	rjmp	.-290    	; 0x488 <main+0x5a>
 5aa:	80 91 af 00 	lds	r24, 0x00AF
 5ae:	88 23       	and	r24, r24
 5b0:	c9 f1       	breq	.+114    	; 0x624 <main+0x1f6>
 5b2:	0e 94 b9 00 	call	0x172	; 0x172 <lcd_clrscr>
 5b6:	8d e8       	ldi	r24, 0x8D	; 141
 5b8:	90 e0       	ldi	r25, 0x00	; 0
 5ba:	0e 94 d3 00 	call	0x1a6	; 0x1a6 <lcd_puts>
 5be:	61 e0       	ldi	r22, 0x01	; 1
 5c0:	80 e0       	ldi	r24, 0x00	; 0
 5c2:	0e 94 ae 00 	call	0x15c	; 0x15c <lcd_gotoxy>
 5c6:	4a e0       	ldi	r20, 0x0A	; 10
 5c8:	50 e0       	ldi	r21, 0x00	; 0
 5ca:	be 01       	movw	r22, r28
 5cc:	6f 5f       	subi	r22, 0xFF	; 255
 5ce:	7f 4f       	sbci	r23, 0xFF	; 255
 5d0:	80 91 64 00 	lds	r24, 0x0064
 5d4:	90 91 65 00 	lds	r25, 0x0065
 5d8:	0e 94 46 04 	call	0x88c	; 0x88c <itoa>
 5dc:	0e 94 d3 00 	call	0x1a6	; 0x1a6 <lcd_puts>
 5e0:	89 e9       	ldi	r24, 0x99	; 153
 5e2:	90 e0       	ldi	r25, 0x00	; 0
 5e4:	0e 94 d3 00 	call	0x1a6	; 0x1a6 <lcd_puts>
 5e8:	88 e0       	ldi	r24, 0x08	; 8
 5ea:	0e 94 25 01 	call	0x24a	; 0x24a <key_pressed>
 5ee:	88 23       	and	r24, r24
 5f0:	49 f0       	breq	.+18     	; 0x604 <main+0x1d6>
 5f2:	80 91 64 00 	lds	r24, 0x0064
 5f6:	90 91 65 00 	lds	r25, 0x0065
 5fa:	8c 33       	cpi	r24, 0x3C	; 60
 5fc:	91 05       	cpc	r25, r1
 5fe:	10 f4       	brcc	.+4      	; 0x604 <main+0x1d6>
 600:	01 96       	adiw	r24, 0x01	; 1
 602:	0c c0       	rjmp	.+24     	; 0x61c <main+0x1ee>
 604:	84 e0       	ldi	r24, 0x04	; 4
 606:	0e 94 25 01 	call	0x24a	; 0x24a <key_pressed>
 60a:	88 23       	and	r24, r24
 60c:	59 f0       	breq	.+22     	; 0x624 <main+0x1f6>
 60e:	80 91 64 00 	lds	r24, 0x0064
 612:	90 91 65 00 	lds	r25, 0x0065
 616:	00 97       	sbiw	r24, 0x00	; 0
 618:	29 f0       	breq	.+10     	; 0x624 <main+0x1f6>
 61a:	01 97       	sbiw	r24, 0x01	; 1
 61c:	90 93 65 00 	sts	0x0065, r25
 620:	80 93 64 00 	sts	0x0064, r24
 624:	80 91 ae 00 	lds	r24, 0x00AE
 628:	88 23       	and	r24, r24
 62a:	91 f1       	breq	.+100    	; 0x690 <main+0x262>
 62c:	0e 94 b9 00 	call	0x172	; 0x172 <lcd_clrscr>
 630:	8b e9       	ldi	r24, 0x9B	; 155
 632:	90 e0       	ldi	r25, 0x00	; 0
 634:	0e 94 d3 00 	call	0x1a6	; 0x1a6 <lcd_puts>
 638:	61 e0       	ldi	r22, 0x01	; 1
 63a:	80 e0       	ldi	r24, 0x00	; 0
 63c:	0e 94 ae 00 	call	0x15c	; 0x15c <lcd_gotoxy>
 640:	4a e0       	ldi	r20, 0x0A	; 10
 642:	50 e0       	ldi	r21, 0x00	; 0
 644:	be 01       	movw	r22, r28
 646:	6f 5f       	subi	r22, 0xFF	; 255
 648:	7f 4f       	sbci	r23, 0xFF	; 255
 64a:	80 91 62 00 	lds	r24, 0x0062
 64e:	90 91 63 00 	lds	r25, 0x0063
 652:	0e 94 46 04 	call	0x88c	; 0x88c <itoa>
 656:	0e 94 d3 00 	call	0x1a6	; 0x1a6 <lcd_puts>
 65a:	88 e0       	ldi	r24, 0x08	; 8
 65c:	0e 94 25 01 	call	0x24a	; 0x24a <key_pressed>
 660:	88 23       	and	r24, r24
 662:	31 f0       	breq	.+12     	; 0x670 <main+0x242>
 664:	80 91 62 00 	lds	r24, 0x0062
 668:	90 91 63 00 	lds	r25, 0x0063
 66c:	0a 96       	adiw	r24, 0x0a	; 10
 66e:	0c c0       	rjmp	.+24     	; 0x688 <main+0x25a>
 670:	84 e0       	ldi	r24, 0x04	; 4
 672:	0e 94 25 01 	call	0x24a	; 0x24a <key_pressed>
 676:	88 23       	and	r24, r24
 678:	59 f0       	breq	.+22     	; 0x690 <main+0x262>
 67a:	80 91 62 00 	lds	r24, 0x0062
 67e:	90 91 63 00 	lds	r25, 0x0063
 682:	00 97       	sbiw	r24, 0x00	; 0
 684:	29 f0       	breq	.+10     	; 0x690 <main+0x262>
 686:	0a 97       	sbiw	r24, 0x0a	; 10
 688:	90 93 63 00 	sts	0x0063, r25
 68c:	80 93 62 00 	sts	0x0062, r24
 690:	80 91 ae 00 	lds	r24, 0x00AE
 694:	81 11       	cpse	r24, r1
 696:	f8 ce       	rjmp	.-528    	; 0x488 <main+0x5a>
 698:	80 91 af 00 	lds	r24, 0x00AF
 69c:	81 11       	cpse	r24, r1
 69e:	f4 ce       	rjmp	.-536    	; 0x488 <main+0x5a>
 6a0:	0e 94 d0 01 	call	0x3a0	; 0x3a0 <home_screen>
 6a4:	84 e6       	ldi	r24, 0x64	; 100
 6a6:	90 e0       	ldi	r25, 0x00	; 0
 6a8:	0e 94 37 01 	call	0x26e	; 0x26e <delay>
 6ac:	ed ce       	rjmp	.-550    	; 0x488 <main+0x5a>

000006ae <__udivmodhi4>:
 6ae:	aa 1b       	sub	r26, r26
 6b0:	bb 1b       	sub	r27, r27
 6b2:	51 e1       	ldi	r21, 0x11	; 17
 6b4:	07 c0       	rjmp	.+14     	; 0x6c4 <__udivmodhi4_ep>

000006b6 <__udivmodhi4_loop>:
 6b6:	aa 1f       	adc	r26, r26
 6b8:	bb 1f       	adc	r27, r27
 6ba:	a6 17       	cp	r26, r22
 6bc:	b7 07       	cpc	r27, r23
 6be:	10 f0       	brcs	.+4      	; 0x6c4 <__udivmodhi4_ep>
 6c0:	a6 1b       	sub	r26, r22
 6c2:	b7 0b       	sbc	r27, r23

000006c4 <__udivmodhi4_ep>:
 6c4:	88 1f       	adc	r24, r24
 6c6:	99 1f       	adc	r25, r25
 6c8:	5a 95       	dec	r21
 6ca:	a9 f7       	brne	.-22     	; 0x6b6 <__udivmodhi4_loop>
 6cc:	80 95       	com	r24
 6ce:	90 95       	com	r25
 6d0:	bc 01       	movw	r22, r24
 6d2:	cd 01       	movw	r24, r26
 6d4:	08 95       	ret

000006d6 <__fixunssfsi>:
 6d6:	70 d0       	rcall	.+224    	; 0x7b8 <__fp_splitA>
 6d8:	88 f0       	brcs	.+34     	; 0x6fc <__fixunssfsi+0x26>
 6da:	9f 57       	subi	r25, 0x7F	; 127
 6dc:	90 f0       	brcs	.+36     	; 0x702 <__fixunssfsi+0x2c>
 6de:	b9 2f       	mov	r27, r25
 6e0:	99 27       	eor	r25, r25
 6e2:	b7 51       	subi	r27, 0x17	; 23
 6e4:	a0 f0       	brcs	.+40     	; 0x70e <__fixunssfsi+0x38>
 6e6:	d1 f0       	breq	.+52     	; 0x71c <__fixunssfsi+0x46>
 6e8:	66 0f       	add	r22, r22
 6ea:	77 1f       	adc	r23, r23
 6ec:	88 1f       	adc	r24, r24
 6ee:	99 1f       	adc	r25, r25
 6f0:	1a f0       	brmi	.+6      	; 0x6f8 <__fixunssfsi+0x22>
 6f2:	ba 95       	dec	r27
 6f4:	c9 f7       	brne	.-14     	; 0x6e8 <__fixunssfsi+0x12>
 6f6:	12 c0       	rjmp	.+36     	; 0x71c <__fixunssfsi+0x46>
 6f8:	b1 30       	cpi	r27, 0x01	; 1
 6fa:	81 f0       	breq	.+32     	; 0x71c <__fixunssfsi+0x46>
 6fc:	77 d0       	rcall	.+238    	; 0x7ec <__fp_zero>
 6fe:	b1 e0       	ldi	r27, 0x01	; 1
 700:	08 95       	ret
 702:	74 c0       	rjmp	.+232    	; 0x7ec <__fp_zero>
 704:	67 2f       	mov	r22, r23
 706:	78 2f       	mov	r23, r24
 708:	88 27       	eor	r24, r24
 70a:	b8 5f       	subi	r27, 0xF8	; 248
 70c:	39 f0       	breq	.+14     	; 0x71c <__fixunssfsi+0x46>
 70e:	b9 3f       	cpi	r27, 0xF9	; 249
 710:	cc f3       	brlt	.-14     	; 0x704 <__fixunssfsi+0x2e>
 712:	86 95       	lsr	r24
 714:	77 95       	ror	r23
 716:	67 95       	ror	r22
 718:	b3 95       	inc	r27
 71a:	d9 f7       	brne	.-10     	; 0x712 <__fixunssfsi+0x3c>
 71c:	3e f4       	brtc	.+14     	; 0x72c <__fixunssfsi+0x56>
 71e:	90 95       	com	r25
 720:	80 95       	com	r24
 722:	70 95       	com	r23
 724:	61 95       	neg	r22
 726:	7f 4f       	sbci	r23, 0xFF	; 255
 728:	8f 4f       	sbci	r24, 0xFF	; 255
 72a:	9f 4f       	sbci	r25, 0xFF	; 255
 72c:	08 95       	ret

0000072e <__floatunsisf>:
 72e:	e8 94       	clt
 730:	09 c0       	rjmp	.+18     	; 0x744 <__floatsisf+0x12>

00000732 <__floatsisf>:
 732:	97 fb       	bst	r25, 7
 734:	3e f4       	brtc	.+14     	; 0x744 <__floatsisf+0x12>
 736:	90 95       	com	r25
 738:	80 95       	com	r24
 73a:	70 95       	com	r23
 73c:	61 95       	neg	r22
 73e:	7f 4f       	sbci	r23, 0xFF	; 255
 740:	8f 4f       	sbci	r24, 0xFF	; 255
 742:	9f 4f       	sbci	r25, 0xFF	; 255
 744:	99 23       	and	r25, r25
 746:	a9 f0       	breq	.+42     	; 0x772 <__floatsisf+0x40>
 748:	f9 2f       	mov	r31, r25
 74a:	96 e9       	ldi	r25, 0x96	; 150
 74c:	bb 27       	eor	r27, r27
 74e:	93 95       	inc	r25
 750:	f6 95       	lsr	r31
 752:	87 95       	ror	r24
 754:	77 95       	ror	r23
 756:	67 95       	ror	r22
 758:	b7 95       	ror	r27
 75a:	f1 11       	cpse	r31, r1
 75c:	f8 cf       	rjmp	.-16     	; 0x74e <__floatsisf+0x1c>
 75e:	fa f4       	brpl	.+62     	; 0x79e <__floatsisf+0x6c>
 760:	bb 0f       	add	r27, r27
 762:	11 f4       	brne	.+4      	; 0x768 <__floatsisf+0x36>
 764:	60 ff       	sbrs	r22, 0
 766:	1b c0       	rjmp	.+54     	; 0x79e <__floatsisf+0x6c>
 768:	6f 5f       	subi	r22, 0xFF	; 255
 76a:	7f 4f       	sbci	r23, 0xFF	; 255
 76c:	8f 4f       	sbci	r24, 0xFF	; 255
 76e:	9f 4f       	sbci	r25, 0xFF	; 255
 770:	16 c0       	rjmp	.+44     	; 0x79e <__floatsisf+0x6c>
 772:	88 23       	and	r24, r24
 774:	11 f0       	breq	.+4      	; 0x77a <__floatsisf+0x48>
 776:	96 e9       	ldi	r25, 0x96	; 150
 778:	11 c0       	rjmp	.+34     	; 0x79c <__floatsisf+0x6a>
 77a:	77 23       	and	r23, r23
 77c:	21 f0       	breq	.+8      	; 0x786 <__floatsisf+0x54>
 77e:	9e e8       	ldi	r25, 0x8E	; 142
 780:	87 2f       	mov	r24, r23
 782:	76 2f       	mov	r23, r22
 784:	05 c0       	rjmp	.+10     	; 0x790 <__floatsisf+0x5e>
 786:	66 23       	and	r22, r22
 788:	71 f0       	breq	.+28     	; 0x7a6 <__floatsisf+0x74>
 78a:	96 e8       	ldi	r25, 0x86	; 134
 78c:	86 2f       	mov	r24, r22
 78e:	70 e0       	ldi	r23, 0x00	; 0
 790:	60 e0       	ldi	r22, 0x00	; 0
 792:	2a f0       	brmi	.+10     	; 0x79e <__floatsisf+0x6c>
 794:	9a 95       	dec	r25
 796:	66 0f       	add	r22, r22
 798:	77 1f       	adc	r23, r23
 79a:	88 1f       	adc	r24, r24
 79c:	da f7       	brpl	.-10     	; 0x794 <__floatsisf+0x62>
 79e:	88 0f       	add	r24, r24
 7a0:	96 95       	lsr	r25
 7a2:	87 95       	ror	r24
 7a4:	97 f9       	bld	r25, 7
 7a6:	08 95       	ret

000007a8 <__fp_split3>:
 7a8:	57 fd       	sbrc	r21, 7
 7aa:	90 58       	subi	r25, 0x80	; 128
 7ac:	44 0f       	add	r20, r20
 7ae:	55 1f       	adc	r21, r21
 7b0:	59 f0       	breq	.+22     	; 0x7c8 <__fp_splitA+0x10>
 7b2:	5f 3f       	cpi	r21, 0xFF	; 255
 7b4:	71 f0       	breq	.+28     	; 0x7d2 <__fp_splitA+0x1a>
 7b6:	47 95       	ror	r20

000007b8 <__fp_splitA>:
 7b8:	88 0f       	add	r24, r24
 7ba:	97 fb       	bst	r25, 7
 7bc:	99 1f       	adc	r25, r25
 7be:	61 f0       	breq	.+24     	; 0x7d8 <__fp_splitA+0x20>
 7c0:	9f 3f       	cpi	r25, 0xFF	; 255
 7c2:	79 f0       	breq	.+30     	; 0x7e2 <__fp_splitA+0x2a>
 7c4:	87 95       	ror	r24
 7c6:	08 95       	ret
 7c8:	12 16       	cp	r1, r18
 7ca:	13 06       	cpc	r1, r19
 7cc:	14 06       	cpc	r1, r20
 7ce:	55 1f       	adc	r21, r21
 7d0:	f2 cf       	rjmp	.-28     	; 0x7b6 <__fp_split3+0xe>
 7d2:	46 95       	lsr	r20
 7d4:	f1 df       	rcall	.-30     	; 0x7b8 <__fp_splitA>
 7d6:	08 c0       	rjmp	.+16     	; 0x7e8 <__fp_splitA+0x30>
 7d8:	16 16       	cp	r1, r22
 7da:	17 06       	cpc	r1, r23
 7dc:	18 06       	cpc	r1, r24
 7de:	99 1f       	adc	r25, r25
 7e0:	f1 cf       	rjmp	.-30     	; 0x7c4 <__fp_splitA+0xc>
 7e2:	86 95       	lsr	r24
 7e4:	71 05       	cpc	r23, r1
 7e6:	61 05       	cpc	r22, r1
 7e8:	08 94       	sec
 7ea:	08 95       	ret

000007ec <__fp_zero>:
 7ec:	e8 94       	clt

000007ee <__fp_szero>:
 7ee:	bb 27       	eor	r27, r27
 7f0:	66 27       	eor	r22, r22
 7f2:	77 27       	eor	r23, r23
 7f4:	cb 01       	movw	r24, r22
 7f6:	97 f9       	bld	r25, 7
 7f8:	08 95       	ret

000007fa <round>:
 7fa:	de df       	rcall	.-68     	; 0x7b8 <__fp_splitA>
 7fc:	e0 f0       	brcs	.+56     	; 0x836 <round+0x3c>
 7fe:	9e 37       	cpi	r25, 0x7E	; 126
 800:	d8 f0       	brcs	.+54     	; 0x838 <round+0x3e>
 802:	96 39       	cpi	r25, 0x96	; 150
 804:	b8 f4       	brcc	.+46     	; 0x834 <round+0x3a>
 806:	9e 38       	cpi	r25, 0x8E	; 142
 808:	48 f4       	brcc	.+18     	; 0x81c <round+0x22>
 80a:	67 2f       	mov	r22, r23
 80c:	78 2f       	mov	r23, r24
 80e:	88 27       	eor	r24, r24
 810:	98 5f       	subi	r25, 0xF8	; 248
 812:	f9 cf       	rjmp	.-14     	; 0x806 <round+0xc>
 814:	86 95       	lsr	r24
 816:	77 95       	ror	r23
 818:	67 95       	ror	r22
 81a:	93 95       	inc	r25
 81c:	95 39       	cpi	r25, 0x95	; 149
 81e:	d0 f3       	brcs	.-12     	; 0x814 <round+0x1a>
 820:	b6 2f       	mov	r27, r22
 822:	b1 70       	andi	r27, 0x01	; 1
 824:	6b 0f       	add	r22, r27
 826:	71 1d       	adc	r23, r1
 828:	81 1d       	adc	r24, r1
 82a:	20 f4       	brcc	.+8      	; 0x834 <round+0x3a>
 82c:	87 95       	ror	r24
 82e:	77 95       	ror	r23
 830:	67 95       	ror	r22
 832:	93 95       	inc	r25
 834:	02 c0       	rjmp	.+4      	; 0x83a <__fp_mintl>
 836:	1c c0       	rjmp	.+56     	; 0x870 <__fp_mpack>
 838:	da cf       	rjmp	.-76     	; 0x7ee <__fp_szero>

0000083a <__fp_mintl>:
 83a:	88 23       	and	r24, r24
 83c:	71 f4       	brne	.+28     	; 0x85a <__fp_mintl+0x20>
 83e:	77 23       	and	r23, r23
 840:	21 f0       	breq	.+8      	; 0x84a <__fp_mintl+0x10>
 842:	98 50       	subi	r25, 0x08	; 8
 844:	87 2b       	or	r24, r23
 846:	76 2f       	mov	r23, r22
 848:	07 c0       	rjmp	.+14     	; 0x858 <__fp_mintl+0x1e>
 84a:	66 23       	and	r22, r22
 84c:	11 f4       	brne	.+4      	; 0x852 <__fp_mintl+0x18>
 84e:	99 27       	eor	r25, r25
 850:	0d c0       	rjmp	.+26     	; 0x86c <__stack+0xd>
 852:	90 51       	subi	r25, 0x10	; 16
 854:	86 2b       	or	r24, r22
 856:	70 e0       	ldi	r23, 0x00	; 0
 858:	60 e0       	ldi	r22, 0x00	; 0
 85a:	2a f0       	brmi	.+10     	; 0x866 <__stack+0x7>
 85c:	9a 95       	dec	r25
 85e:	66 0f       	add	r22, r22
 860:	77 1f       	adc	r23, r23
 862:	88 1f       	adc	r24, r24
 864:	da f7       	brpl	.-10     	; 0x85c <__fp_mintl+0x22>
 866:	88 0f       	add	r24, r24
 868:	96 95       	lsr	r25
 86a:	87 95       	ror	r24
 86c:	97 f9       	bld	r25, 7
 86e:	08 95       	ret

00000870 <__fp_mpack>:
 870:	9f 3f       	cpi	r25, 0xFF	; 255
 872:	31 f0       	breq	.+12     	; 0x880 <__fp_mpack_finite+0xc>

00000874 <__fp_mpack_finite>:
 874:	91 50       	subi	r25, 0x01	; 1
 876:	20 f4       	brcc	.+8      	; 0x880 <__fp_mpack_finite+0xc>
 878:	87 95       	ror	r24
 87a:	77 95       	ror	r23
 87c:	67 95       	ror	r22
 87e:	b7 95       	ror	r27
 880:	88 0f       	add	r24, r24
 882:	91 1d       	adc	r25, r1
 884:	96 95       	lsr	r25
 886:	87 95       	ror	r24
 888:	97 f9       	bld	r25, 7
 88a:	08 95       	ret

0000088c <itoa>:
 88c:	45 32       	cpi	r20, 0x25	; 37
 88e:	51 05       	cpc	r21, r1
 890:	20 f4       	brcc	.+8      	; 0x89a <itoa+0xe>
 892:	42 30       	cpi	r20, 0x02	; 2
 894:	10 f0       	brcs	.+4      	; 0x89a <itoa+0xe>
 896:	0c 94 51 04 	jmp	0x8a2	; 0x8a2 <__itoa_ncheck>
 89a:	fb 01       	movw	r30, r22
 89c:	10 82       	st	Z, r1
 89e:	cb 01       	movw	r24, r22
 8a0:	08 95       	ret

000008a2 <__itoa_ncheck>:
 8a2:	bb 27       	eor	r27, r27
 8a4:	4a 30       	cpi	r20, 0x0A	; 10
 8a6:	31 f4       	brne	.+12     	; 0x8b4 <__itoa_ncheck+0x12>
 8a8:	99 23       	and	r25, r25
 8aa:	22 f4       	brpl	.+8      	; 0x8b4 <__itoa_ncheck+0x12>
 8ac:	bd e2       	ldi	r27, 0x2D	; 45
 8ae:	90 95       	com	r25
 8b0:	81 95       	neg	r24
 8b2:	9f 4f       	sbci	r25, 0xFF	; 255
 8b4:	0c 94 5d 04 	jmp	0x8ba	; 0x8ba <__utoa_common>

000008b8 <__utoa_ncheck>:
 8b8:	bb 27       	eor	r27, r27

000008ba <__utoa_common>:
 8ba:	fb 01       	movw	r30, r22
 8bc:	55 27       	eor	r21, r21
 8be:	aa 27       	eor	r26, r26
 8c0:	88 0f       	add	r24, r24
 8c2:	99 1f       	adc	r25, r25
 8c4:	aa 1f       	adc	r26, r26
 8c6:	a4 17       	cp	r26, r20
 8c8:	10 f0       	brcs	.+4      	; 0x8ce <__utoa_common+0x14>
 8ca:	a4 1b       	sub	r26, r20
 8cc:	83 95       	inc	r24
 8ce:	50 51       	subi	r21, 0x10	; 16
 8d0:	b9 f7       	brne	.-18     	; 0x8c0 <__utoa_common+0x6>
 8d2:	a0 5d       	subi	r26, 0xD0	; 208
 8d4:	aa 33       	cpi	r26, 0x3A	; 58
 8d6:	08 f0       	brcs	.+2      	; 0x8da <__utoa_common+0x20>
 8d8:	a9 5d       	subi	r26, 0xD9	; 217
 8da:	a1 93       	st	Z+, r26
 8dc:	00 97       	sbiw	r24, 0x00	; 0
 8de:	79 f7       	brne	.-34     	; 0x8be <__utoa_common+0x4>
 8e0:	b1 11       	cpse	r27, r1
 8e2:	b1 93       	st	Z+, r27
 8e4:	11 92       	st	Z+, r1
 8e6:	cb 01       	movw	r24, r22
 8e8:	0c 94 76 04 	jmp	0x8ec	; 0x8ec <strrev>

000008ec <strrev>:
 8ec:	dc 01       	movw	r26, r24
 8ee:	fc 01       	movw	r30, r24
 8f0:	67 2f       	mov	r22, r23
 8f2:	71 91       	ld	r23, Z+
 8f4:	77 23       	and	r23, r23
 8f6:	e1 f7       	brne	.-8      	; 0x8f0 <strrev+0x4>
 8f8:	32 97       	sbiw	r30, 0x02	; 2
 8fa:	04 c0       	rjmp	.+8      	; 0x904 <strrev+0x18>
 8fc:	7c 91       	ld	r23, X
 8fe:	6d 93       	st	X+, r22
 900:	70 83       	st	Z, r23
 902:	62 91       	ld	r22, -Z
 904:	ae 17       	cp	r26, r30
 906:	bf 07       	cpc	r27, r31
 908:	c8 f3       	brcs	.-14     	; 0x8fc <strrev+0x10>
 90a:	08 95       	ret

0000090c <_exit>:
 90c:	f8 94       	cli

0000090e <__stop_program>:
 90e:	ff cf       	rjmp	.-2      	; 0x90e <__stop_program>
